{
  "contractName": "Faucet",
  "abi": [
    {
      "inputs": [],
      "name": "numOfFunders",
      "outputs": [
        {
          "internalType": "uint256",
          "name": "",
          "type": "uint256"
        }
      ],
      "stateMutability": "view",
      "type": "function",
      "constant": true
    },
    {
      "inputs": [],
      "name": "owner",
      "outputs": [
        {
          "internalType": "address",
          "name": "",
          "type": "address"
        }
      ],
      "stateMutability": "view",
      "type": "function",
      "constant": true
    },
    {
      "inputs": [],
      "name": "test3",
      "outputs": [
        {
          "internalType": "uint256",
          "name": "",
          "type": "uint256"
        }
      ],
      "stateMutability": "pure",
      "type": "function",
      "constant": true
    },
    {
      "stateMutability": "payable",
      "type": "receive",
      "payable": true
    },
    {
      "inputs": [],
      "name": "emitLog",
      "outputs": [
        {
          "internalType": "bytes32",
          "name": "",
          "type": "bytes32"
        }
      ],
      "stateMutability": "pure",
      "type": "function",
      "constant": true
    },
    {
      "inputs": [],
      "name": "addFunds",
      "outputs": [],
      "stateMutability": "payable",
      "type": "function",
      "payable": true
    },
    {
      "inputs": [],
      "name": "test1",
      "outputs": [],
      "stateMutability": "nonpayable",
      "type": "function"
    },
    {
      "inputs": [],
      "name": "test2",
      "outputs": [],
      "stateMutability": "nonpayable",
      "type": "function"
    },
    {
      "inputs": [
        {
          "internalType": "uint256",
          "name": "withdrawAmount",
          "type": "uint256"
        }
      ],
      "name": "withdraw",
      "outputs": [],
      "stateMutability": "nonpayable",
      "type": "function"
    },
    {
      "inputs": [],
      "name": "getAllFunders",
      "outputs": [
        {
          "internalType": "address[]",
          "name": "",
          "type": "address[]"
        }
      ],
      "stateMutability": "view",
      "type": "function",
      "constant": true
    },
    {
      "inputs": [
        {
          "internalType": "uint8",
          "name": "index",
          "type": "uint8"
        }
      ],
      "name": "getFunderAtIndex",
      "outputs": [
        {
          "internalType": "address",
          "name": "",
          "type": "address"
        }
      ],
      "stateMutability": "view",
      "type": "function",
      "constant": true
    }
  ],
  "bytecode": "0x608060405234801561001057600080fd5b50336000806101000a81548173ffffffffffffffffffffffffffffffffffffffff021916908373ffffffffffffffffffffffffffffffffffffffff1602179055506103e8600181905550610b2b806100696000396000f3fe6080604052600436106100955760003560e01c80636fbbb55d116100595780636fbbb55d146101605780638da5cb5b1461018b578063a26759cb146101b6578063af7f2c9b146101c0578063f42c13bf146101eb5761009c565b80630a8e8e01146100a15780630a93cf33146100cc5780632e1a7d4d1461010957806366e41cb7146101325780636b59084d146101495761009c565b3661009c57005b600080fd5b3480156100ad57600080fd5b506100b6610216565b6040516100c3919061069b565b60405180910390f35b3480156100d857600080fd5b506100f360048036038101906100ee91906106f4565b61021f565b6040516101009190610762565b60405180910390f35b34801561011557600080fd5b50610130600480360381019061012b91906107a9565b61025f565b005b34801561013e57600080fd5b506101476102f6565b005b34801561015557600080fd5b5061015e610386565b005b34801561016c57600080fd5b50610175610416565b6040516101829190610894565b60405180910390f35b34801561019757600080fd5b506101a0610510565b6040516101ad9190610762565b60405180910390f35b6101be610534565b005b3480156101cc57600080fd5b506101d5610654565b6040516101e2919061069b565b60405180910390f35b3480156101f757600080fd5b5061020061065a565b60405161020d91906108cf565b60405180910390f35b60006064905090565b6000600460008360ff16815260200190815260200160002060009054906101000a900473ffffffffffffffffffffffffffffffffffffffff169050919050565b8067016345785d8a00008111156102ab576040517f08c379a00000000000000000000000000000000000000000000000000000000081526004016102a29061096d565b60405180910390fd5b3373ffffffffffffffffffffffffffffffffffffffff166108fc839081150290604051600060405180830381858888f193505050501580156102f1573d6000803e3d6000fd5b505050565b60008054906101000a900473ffffffffffffffffffffffffffffffffffffffff1673ffffffffffffffffffffffffffffffffffffffff163373ffffffffffffffffffffffffffffffffffffffff1614610384576040517f08c379a000000000000000000000000000000000000000000000000000000000815260040161037b906109ff565b60405180910390fd5b565b60008054906101000a900473ffffffffffffffffffffffffffffffffffffffff1673ffffffffffffffffffffffffffffffffffffffff163373ffffffffffffffffffffffffffffffffffffffff1614610414576040517f08c379a000000000000000000000000000000000000000000000000000000000815260040161040b906109ff565b60405180910390fd5b565b6060600060025467ffffffffffffffff81111561043657610435610a1f565b5b6040519080825280602002602001820160405280156104645781602001602082028036833780820191505090505b50905060005b600254811015610508576004600082815260200190815260200160002060009054906101000a900473ffffffffffffffffffffffffffffffffffffffff168282815181106104bb576104ba610a4e565b5b602002602001019073ffffffffffffffffffffffffffffffffffffffff16908173ffffffffffffffffffffffffffffffffffffffff1681525050808061050090610aac565b91505061046a565b508091505090565b60008054906101000a900473ffffffffffffffffffffffffffffffffffffffff1681565b6000339050600360008273ffffffffffffffffffffffffffffffffffffffff1673ffffffffffffffffffffffffffffffffffffffff16815260200190815260200160002060009054906101000a900460ff166106515760006002600081548092919061059f90610aac565b9190505590506001600360008473ffffffffffffffffffffffffffffffffffffffff1673ffffffffffffffffffffffffffffffffffffffff16815260200190815260200160002060006101000a81548160ff021916908315150217905550816004600083815260200190815260200160002060006101000a81548173ffffffffffffffffffffffffffffffffffffffff021916908373ffffffffffffffffffffffffffffffffffffffff160217905550505b50565b60025481565b60007f48656c6c6f20576f726c64000000000000000000000000000000000000000000905090565b6000819050919050565b61069581610682565b82525050565b60006020820190506106b0600083018461068c565b92915050565b600080fd5b600060ff82169050919050565b6106d1816106bb565b81146106dc57600080fd5b50565b6000813590506106ee816106c8565b92915050565b60006020828403121561070a576107096106b6565b5b6000610718848285016106df565b91505092915050565b600073ffffffffffffffffffffffffffffffffffffffff82169050919050565b600061074c82610721565b9050919050565b61075c81610741565b82525050565b60006020820190506107776000830184610753565b92915050565b61078681610682565b811461079157600080fd5b50565b6000813590506107a38161077d565b92915050565b6000602082840312156107bf576107be6106b6565b5b60006107cd84828501610794565b91505092915050565b600081519050919050565b600082825260208201905092915050565b6000819050602082019050919050565b61080b81610741565b82525050565b600061081d8383610802565b60208301905092915050565b6000602082019050919050565b6000610841826107d6565b61084b81856107e1565b9350610856836107f2565b8060005b8381101561088757815161086e8882610811565b975061087983610829565b92505060018101905061085a565b5085935050505092915050565b600060208201905081810360008301526108ae8184610836565b905092915050565b6000819050919050565b6108c9816108b6565b82525050565b60006020820190506108e460008301846108c0565b92915050565b600082825260208201905092915050565b7f43616e6e6f74207769746864726177206d6f7265207468616e20302e3120657460008201527f6865720000000000000000000000000000000000000000000000000000000000602082015250565b60006109576023836108ea565b9150610962826108fb565b604082019050919050565b600060208201905081810360008301526109868161094a565b9050919050565b7f4f6e6c79206f776e65722063616e2063616c6c20746869732066756e6374696f60008201527f6e00000000000000000000000000000000000000000000000000000000000000602082015250565b60006109e96021836108ea565b91506109f48261098d565b604082019050919050565b60006020820190508181036000830152610a18816109dc565b9050919050565b7f4e487b7100000000000000000000000000000000000000000000000000000000600052604160045260246000fd5b7f4e487b7100000000000000000000000000000000000000000000000000000000600052603260045260246000fd5b7f4e487b7100000000000000000000000000000000000000000000000000000000600052601160045260246000fd5b6000610ab782610682565b91507fffffffffffffffffffffffffffffffffffffffffffffffffffffffffffffffff821415610aea57610ae9610a7d565b5b60018201905091905056fea26469706673582212204fecfe8514139c004c407123ef197f4ddbc6b3b5156fd3717e12224725e4b1ed64736f6c634300080b0033",
  "immutableReferences": {},
  "source": "// SPDX-License_Identifier: MIT\npragma solidity >= 0.4.22 < 0.9.0;\n\nimport \"./Owned.sol\";\nimport \"./Logger.sol\";\nimport \"./iFaucet.sol\";\n\ncontract Faucet is Owned,Logger,iFaucet{\n    //special function to receive eth and update balance\n    //used when a transaction is made that doesn't specify function name to call\n\n    //address type keeps value of address -20byte address\n\n    uint public numOfFunders;\n\n    mapping(address => bool) private funders;\n    mapping(uint  => address) private lutFunders;\n\n    modifier limitWithdraw(uint withdrawAmount){\n         require\n        (\n            withdrawAmount <= 100000000000000000, \n            \"Cannot withdraw more than 0.1 ether\"\n        );\n        _; //parameter sent to limitWithdraw (function body)\n        //execute payable(transfer ether)\n\n    }\n\n    receive() external payable {}\n\n    function emitLog() public override pure returns(bytes32){\n\n        return \"Hello World\";\n    }\n    \n    function addFunds() override external payable {\n       address funder = msg.sender;\n       if(!funders[funder]){\n           uint index = numOfFunders++;\n           funders[funder] = true;\n           lutFunders[index] = funder;\n       }\n    }\n\n    function test1() external onlyOwner{\n        //Management only admin should have access to\n\n    }\n\n    function test2() external onlyOwner{\n        //Management only admin should have access to\n    }\n\n    function withdraw(uint withdrawAmount) override external limitWithdraw(withdrawAmount){\n        \n        payable(msg.sender).transfer(withdrawAmount);\n        \n        \n    } \n\n    function getAllFunders() external view returns(address [] memory){\n        \n        address[] memory _funders = new address[](numOfFunders);\n        for(uint i=0; i < numOfFunders; i++){\n           _funders[i] = lutFunders[i]; \n        }\n\n        return _funders;\n    }\n\n   \n\n    function getFunderAtIndex(uint8 index) external view returns(address){\n        // address[] memory _funder = getAllFunders();\n        //this.getAllFunders(); costs more gas\n        return lutFunders[index];\n        \n    }\n    //with external tag the function cannot be called internally\n\n  \n\n    //transactions generate gas fees\n    //pure/view - read-only no gas-fee\n    //pure vs view - you don't need to change ethereum state\n    //no storage variables are altered\n    //view indicates no storage is altered\n    //pure - more strict won't even read storage state\n\n\n    //To talk to the node on the network we need to make JSONRPC calls\n    \n    //const instance = await Faucet.deployed()\n    //instance.addFunds({from: accounts[0], value :\" 200000000 \"})\n    //instance.addFunds({from: accounts[0], value :\" 200000000 \"})\n\n}",
  "sourcePath": "/home/wambugumm/Development/blockchain/faucet/contracts/FaucetContract.sol",
  "compiler": {
    "name": "solc",
    "version": "0.8.11+commit.d7f03943.Emscripten.clang"
  },
  "schemaVersion": "3.4.5",
  "updatedAt": "2022-03-08T11:40:54.115Z",
  "networkType": "ethereum",
  "devdoc": {
    "kind": "dev",
    "methods": {},
    "version": 1
  },
  "userdoc": {
    "kind": "user",
    "methods": {},
    "version": 1
  }
}